:020000040800F2
:100000002809002005010008490B0008410B0008E1
:10001000450B000825060008311E000800000000FE
:10002000000000000000000000000000AD1A000801
:10003000C90700080000000035140008991B0008DB
:100040001F0100081F0100081F0100081F01000810
:100050001F0100081F0100081F0100081F01000800
:100060001F0100081F0100081F0100081F010008F0
:100070001F0100081F0100081F0100081F010008E0
:100080001F0100081F0100081F0100081F010008D0
:100090001F0100081F0100081F0100081F010008C0
:1000A0001F0100081F0100081F0100081F010008B0
:1000B0001F0100081F0100081F0100081F010008A0
:1000C0001F0100081F0100081F0100081F01000890
:1000D0001F0100081F0100081F0100081F01000880
:1000E0001F0100081F0100081F010008DFF810D0E1
:1000F00000F00AF90048004795210008AFF300809E
:10010000280900200648804706480047FEE7FEE72A
:10011000FEE7FEE7FEE7FEE7FEE7FEE7FEE7FEE7B7
:10012000BD1B0008ED000008F0B480EA0102D40F06
:100130004200B2EB410F02D20246084611464A0085
:1001400042D0C30DDDB2C1F3C752AD1A202D35DA4E
:10015000C1F3160141F4000204B15242C5F1200678
:1001600002FA06F12A411044B3EBD05F23D0C4B1A8
:10017000012DA0EBC35009DCF0BC4FF0004202EAB5
:10018000C352DBB200F5000000F090B8400000F16F
:10019000807000EBC350A0F1807040EAD17049003C
:1001A00009E0490841EAC071A0EBC35000F5000026
:1001B000400800EBC350F0BC00F06FB86142012270
:1001C00002EB4101001BF6E7F0BC704781F00041F3
:1001D000AAE780F00040A7E780EA010210B502F02C
:1001E0000043400022D04A001FD0010E01EB1261F3
:1001F000C0F35600C2F3560240F4000042F400027D
:10020000A0FB022000047F39140400D0401C50EAF7
:10021000124001D44000491EC2B20C0604EBD010BB
:10022000401C4008802A02D003E0002010BD20F0CE
:100230000100002900DA0020184310BD9623002297
:10024000114600F033B820F00040C10DC0F3160095
:1002500040F400007F2901DA00207047962903DC72
:10026000C1F19601C840704796398840704730B553
:100270000B46014600202022012409E021FA02F564
:100280009D4205D303FA02F5491B04FA02F52844FE
:10029000151EA2F10102F1DC30BD0029A8BF704794
:1002A000401C490008BF20F00100704710B4B0FAAC
:1002B00080FC00FA0CF050EA010404BF10BC704747
:1002C00049B1CCF1200421FA04F411FA0CF118BF61
:1002D000012121430843A3EB0C01CB1D4FEA006130
:1002E0004FEA102042BF002010BC704700EBC35003
:1002F00010440029A4BF10BC7047401C490008BF2F
:1003000020F0010010BC7047064C074D06E0E06885
:1003100040F0010394E8070098471034AC42F6D34C
:10032000FFF7E8FE543A0008743A000808B50121C6
:10033000084601F08DF801214FF4017001F098F8A2
:1003400000208DF803000F20ADF800006946024838
:1003500000F01EFB08BD00000008014000B591B090
:100360003D4800F06DF93D4806903D48079000205B
:1003700008900420099000200A9080200B904000F3
:100380000C9080000D9020200E9000020F90002015
:10039000109006A9304800F0F9F901212E4800F02C
:1003A00043F90020019001208DF808008DF8090024
:1003B0004FF4602003900020049004208DF8140076
:1003C00001A926484C3800F077F84FF4404001F07E
:1003D00033F805230122002120484C3800F094F81E
:1003E0000523022201211D484C3800F08DF8052319
:1003F0000322022119484C3800F086F80523042214
:10040000032116484C3800F07FF8012113484C387E
:1004100000F033F8012111484C3800F023F80F4860
:100420004C3800F0CDF800BF0C484C3800F03AF8DA
:100430000028F9D109484C3800F0D2F800BF07482D
:100440004C3800F025F80028F9D1012103484C3838
:1004500000F0BBF811B000BD080002404C24014080
:100460001400002021B1826842F00102826003E0A2
:10047000826822F001028260704721B1826842F4F2
:100480008072826003E0826822F48072826070472A
:10049000014600208A6802F004020AB1012000E04F
:1004A00000207047014600208A6802F008020AB165
:1004B000012000E00020704730B5024600200023F4
:1004C00050680F4C20400D790C6844EA0524204305
:1004D000506090680B4C2040D1E902542C434D7978
:1004E00044EA450420439060D06A20F470000C7CFC
:1004F000641EE4B2234340EA0350D06230BD0000E2
:10050000FFFEF0FFFDF7F1FFF0B504460D460020B9
:100510000021092D11DDE068A5F10A0606EB46076A
:10052000072606FA07F18843A5F10A0606EB4606F8
:1005300003FA06F10843E0600CE0206905EB45078B
:10054000072606FA07F1884305EB450603FA06F18C
:1005500008432061072A0FDA606B561E06EB8607F8
:100560001F2606FA07F18843561E06EB860605FA93
:1005700006F10843606322E00D2A0FDA206BD61FD4
:1005800006EB86071F2606FA07F18843D61F06EBFF
:10059000860605FA06F10843206310E0E06AA2F13E
:1005A0000D0606EB86071F2606FA07F18843A2F11F
:1005B0000D0606EB860605FA06F10843E062F0BD7B
:1005C000816841F008018160704721B1826842F47E
:1005D000A002826003E0826822F4A0028260704779
:1005E000816841F0040181607047000008B5012175
:1005F000042000F03DFF4FF48050ADF800001020C3
:100600008DF8030003208DF802006946044800F0CD
:10061000BFF94FF48051024800F08EFA08BD000087
:100620000008014000BFFEE721B1026842F001026C
:10063000026004E002684FF6FE731A4002607047E1
:1006400001684FF6FE7211400160002101604160B7
:100650008160C1604B49884208D14A4908394968DC
:1006600041F00F01474A083A51608AE04549143188
:10067000884208D143490839496841F0F001414AAC
:10068000083A51607DE03F492831884208D13D4910
:100690000839496841F470613A4A083A516070E09B
:1006A00038493C31884208D136490839496841F413
:1006B0007041344A083A516063E03249503188420F
:1006C00008D130490839496841F470212D4A083A67
:1006D000516056E02B496431884208D129490839D4
:1006E000496841F47001274A083A516049E02549B8
:1006F0007831884208D123490839496841F070614E
:10070000204A083A51603CE01F49884206D1011F47
:10071000096841F00F01021F116032E01A491431DB
:10072000884208D11849091F096841F0F001164AAA
:10073000121F116025E014492831884208D112495E
:10074000091F096841F470610F4A121F116018E017
:100750000D493C31884208D10B49091F096841F411
:100760007041094A121F11600BE00749503188425D
:1007700007D10549091F096841F47021024A121F77
:1007800011607047080002400804024010B50022C2
:10079000026847F6F0739A430C6A8B6823430C692E
:1007A00023434C6923438C692343CC6923434C6A1C
:1007B00023438C6A23431A430260CB6843600B686F
:1007C00083604B68C36010BD704700000149C8607A
:1007D000704700000020024030B5044604254FF465
:1007E000302000F06FF80546042D17D10C48006941
:1007F00040F002000A49086108464461006940F07F
:10080000400008614FF4302000F05CF805460448D1
:10081000006941F6FD71084001490861284630BD74
:100820000020024004200B49C96801F0010109B110
:1008300001200EE00749C96801F0040109B1022056
:1008400007E00449C96801F0100109B1032000E084
:1008500004207047002002400348006940F08000F7
:1008600001490861704700000020024070B504464D
:100870000D460426F00200F025F80646042E11D19C
:100880000948006940F00100074908612580F0022D
:1008900000F018F806460448006941F6FE71084069
:1008A00001490861304670BD0020024002480349FA
:1008B00048600348486070472301674500200240B4
:1008C000AB89EFCD00B502460423FFF7ABFF03462B
:1008D00003E0FFF7A7FF0346521E012B01D1002AB8
:1008E000F7D102B90523184600BD000070B50446D3
:1008F0000D46FFF7DBFF3420FFF768FF01201F499B
:10090000086000201E49086010E01D4909681D4A62
:10091000531403FB0120FFF75FFF042801D000BF41
:10092000FEE717480068401C154908601448006835
:1009300012490968884203D2134800780428E4D099
:1009400010481249086010E0208881B20F48006802
:10095000FFF78CFF042806D1A41C0C480068801CFB
:100960000A49086001E000BFFEE7281EA5F1010169
:10097000CDB2E9D1FFF770FF70BD00002800002064
:100980001C00002000FC00082C000020200000209B
:100990002DE9F04102460025002600200023002416
:1009A000002791F803C00CF00F0591F803C00CF07C
:1009B000100CBCF1000F03D091F802C04CEA050501
:1009C00091F800C0BCF1000F31D0146800202BE07A
:1009D0004FF0010C0CFA00F3B1F800C00CEA03066A
:1009E0009E4220D183004FF00F0C0CFA03F7BC435A
:1009F00005FA03FC4CEA040491F803C0BCF1280F8B
:100A000006D14FF0010C0CFA00FCC2F814C00AE049
:100A100091F803C0BCF1480F05D14FF0010C0CFA5E
:100A200000FCC2F810C0401C0828D1D31460B1F8F3
:100A300000C0BCF1FF0F34DD546800202EE000F14F
:100A4000080C4FF0010808FA0CF3B1F800C00CEAEA
:100A500003069E4221D183004FF00F0C0CFA03F7DE
:100A6000BC4305FA03FC4CEA040491F803C0BCF152
:100A7000280F05D100F1080C08FA0CF8C2F8148010
:100A800091F803C0BCF1480F07D100F1080C4FF0FA
:100A9000010808FA0CF8C2F81080401C0828CED3D0
:100AA0005460BDE8F0810000F0B50A460023002440
:100AB0000021002500F00046B6F1004F02D11D4E86
:100AC000F16901E01B4E7168C0F3034583B200F485
:100AD0004016B6F5401F08D121F07061154E7668BA
:100AE00026F07066134F7E6012E000F48016B6F5B3
:100AF000801F06D1032606FA05F4A14341F0706178
:100B000006E0460D360103FA06F6B14341F0706186
:100B100022B1460D360103FA06F6314300F00046D5
:100B2000B6F1004F02D1034EF16101E0014E716058
:100B3000F0BD000000000140416170470161704755
:100B400000BFFEE700BFFEE7704700001FB510A121
:100B500003C9CDE90201052202A9302000F0F4F812
:100B600005226946102000F091F8002406E01DF8E7
:100B70000400A52800D003E0601CC4B2052CF6DBFD
:100B800000BF052C02D0012004B010BD0020FBE7FF
:100B9000A5A5A5A5A500000008B50121084600F0FF
:100BA00067FC01212D48FFF77FFF0121082000F09D
:100BB0005FFC4FF4C060ADF8000010208DF803001A
:100BC00003208DF8020069462548FFF7E1FE012168
:100BD000042000F04DFC4FF40040ADF80000102060
:100BE0008DF8030003208DF8020069461D48FFF7C9
:100BF000CFFE0121042000F03BFC1020ADF80000E6
:100C00008DF8030003208DF8020069461548FFF7B0
:100C1000BFFE4FF4004013491031086010200860F7
:100C2000C001ADF8000048208DF8030003208DF8C6
:100C3000020069460B48FFF7ABFE4FF4006109481C
:100C4000FFF77CFF00F0A2FE4FF40040054914318D
:100C500008601020091F086008BD00000002300075
:100C6000000C01400008014010B5FFF795FF00BFE0
:100C7000FFF76CFF0028FBD14FF400710248FFF72B
:100C80005DFF00F0CBFF10BD000C01402DE9F041ED
:100C900007460D46164610200B490860384600F0FE
:100CA000E9FE8046002405E0FF2000F0E3FE285521
:100CB000601CC4B2B442F7DB10200349091F08606E
:100CC0004046BDE8F08100001408014070B50446BC
:100CD000102007490860204600F0CCFEFF2000F0FD
:100CE000C9FE054610200249091F0860284670BD4C
:100CF0001408014070B505464FF4004011490860E2
:100D000020222946A02000F01FF84FF400400D4992
:100D1000091F08600720FFF7D9FF04462146272056
:100D200000F032F804F0100028B1FF21E12000F0BB
:100D30002BF8102070BD04F0200008B12020F9E746
:100D4000FF20F7E7140801402DE9F04107460C4663
:100D5000154610200B490860384600F08BFE80468F
:100D6000002605E014F8010B00F084FE701CC6B2EA
:100D7000AE42F7DB10200349091F08604046BDE87A
:100D8000F08100001408014070B505460C461020A3
:100D900007490860284600F06DFE0646204600F030
:100DA00069FE10200249091F0860304670BD00002E
:100DB0001408014010B504201BE01949014411F842
:100DC000031C184A11541146C97F125C1144154A7C
:100DD000D1771349014411F8042C124B411C5A5489
:100DE0001946C97F1A46125C11441A46D177811CF4
:100DF000C8B21A28E1DB00200A49C87700BF08E022
:100E00000849C97F074A125C1144064AD177411C40
:100E1000C8B21F28F4DB0348FFF76CFF10BD0000C9
:100E2000300000204800002070B5002100230F2270
:100E3000C47804B3154C246804F4E064C4F5E06499
:100E4000210AC1F10403CA40447804FA03F184780A
:100E50001440214309010E4C0678A155047804F092
:100E60001F050124AC4005786D11AD0005F1E025AA
:100E7000C5F8004109E0047804F01F050124AC40E6
:100E8000044D0678761145F8264070BD0CED00E063
:100E900000E400E080E100E070B500240CE00025F3
:100EA00006E00020074901EBC5010855681CC5B2E2
:100EB000802DF6DB601CC4B2082CF0DB00F030F9AA
:100EC00070BD0000A600002070B50B46CE1701EBE8
:100ED0005676C6F3C702CE1701EB5676F610A1EB95
:100EE000C606F4B20123A340DDB20E4B03EBC003F0
:100EF0009B5CDB430B4E06EBC006B354094B03EB84
:100F0000C0039B5C2B43074E06EBC006B354054B56
:100F100003EBC0039B5CDB43024E06EBC006B354FD
:100F200070BD0000A600002010B504461CB90021C9
:100F3000A62000F047FA012C03D10021A72000F0E1
:100F400041FA10BD10B500F03DF80020FFF7ECFFAE
:100F5000002000F003F800F0E3F810BD10B50446DF
:100F60003CB90021C82000F02DFA0021A12000F09A
:100F700029FA012C07D10021C02000F023FA00211A
:100F8000A02000F01FFA10BD70B50A46CE1701EB85
:100F90005676C6F3C703CE1701EB5676F610A1EBD3
:100FA000C606F4B20122A240D5B2054A02EBC00245
:100FB000D25C2A43024E06EBC006F25470BD00001C
:100FC000A600002008B50121082000F051FA4FF4D6
:100FD0007040ADF8000010208DF8030003208DF85C
:100FE000020069464748FFF7D3FC40F20311454829
:100FF000FFF7A4FD4FF480414248FFF79FFD6420B6
:1010000000F0F4FF4FF480413E48FFF795FDC82003
:1010100000F0ECFF4FF480413A48FFF78FFD0021CC
:10102000AE2000F0CFF90021084600F0CBF90021F6
:10103000102000F0C7F90021402000F0C3F9002182
:10104000812000F0BFF90021CF2000F0BBF9002182
:10105000A12000F0B7F90021C82000F0B3F9002169
:10106000A62000F0AFF90021A82000F0ABF9002184
:101070003F2000F0A7F90021D32000F0A3F90021C0
:10108000084600F09FF90021D52000F09BF90021CF
:10109000802000F097F90021D92000F093F9002179
:1010A000F12000F08FF90021DA2000F08BF9002107
:1010B000122000F087F90021DB2000F083F90021E5
:1010C000402000F07FF90021202000F07BF9002172
:1010D000022000F077F900218D2000F073F9002143
:1010E000142000F06FF90021A42000F06BF900211A
:1010F000A62000F067F90021AF2000F063F9FFF7A8
:10110000CBFE08BD000C014010B50246012000E0F6
:1011100050430B1EA1F10104E1B2F9D110BD000052
:1011200070B500241CE004F1B001C8B2002100F049
:1011300049F90021084600F045F90021102000F08F
:1011400041F9002508E0084901EBC501085D0121CE
:1011500000F038F9681CC5B2802DF4DB601CC4B205
:10116000082CE0DB70BD0000A60000202DE9FF4F39
:1011700081B080460E461C4600962046E31704EBDD
:101180005373DB1021464FEAE47C04EB5C7C4FEAAE
:10119000EC0CA4EBCC0CBCF1000F02D04FF0010C16
:1011A00001E04FF0000C6344224604EBD27C4FEA8E
:1011B0006C0C03FB0CF303F0FF0B03982038C7B251
:1011C000002547E00C2C07D107EB4700234901EB32
:1011D000800010F805A014E0102C05D1204800EB89
:1011E000071010F805A00CE0182C07D107EBC7007A
:1011F0001C4901EB800010F805A002E005B0BDE835
:10120000F08F4FF000091FE00AF0800020B1314656
:101210004046FFF7B9FE03E031464046FFF754FE73
:101220004FEA4A604FEA106A701CC6B20098301A42
:10123000A04205D1009E08F1010000F0FF0806E081
:1012400009F1010000F0FF09B9F1080FDCDB00BF74
:10125000681CC5B25D45B5DB00BFCFE74A22000878
:10126000BE260008AE2C000808B50C231EA20021E3
:10127000084600F085F80C2000901D488288042361
:101280000021282000F042F80C231AA20F21002090
:1012900000F076F80C2000901548C28804230F2136
:1012A000282000F033F80C2314A21E21002000F0A7
:1012B00067F80C2000900E48428804231E21282045
:1012C00000F024F80C230FA22D21002000F058F884
:1012D0000C2000900648028804232D21282000F0CD
:1012E00015F8FFF71DFF08BD5468723A00000000B2
:1012F000300000205961773A000000004C26523A35
:10130000000000004626423A000000002DE9F04FA0
:1013100006468A4691461F46099C00252CE0781B0C
:10132000401EC1B20A20FFF7EFFEB9FBF0F00A2120
:10133000B0FBF1F201FB1208B8F1000F0CD1A3468B
:1013400004EBDB71491001FB0561C8B22346302272
:101350005146FFF70BFF0DE0A34604EBDB7149108C
:1013600001FB0561C8B208F13001CAB223465146FB
:10137000FFF7FCFE681CC5B2BD42D0DBBDE8F08FB4
:10138000F0B506460F4614461D4613E022782B465C
:1013900039463046FFF7EAFE284605EBD07106EBEA
:1013A0006101CEB2C5F18000B04202DA0026B81C5D
:1013B000C7B2641C2078202802DB20787E28E5DD77
:1013C000F0BD000070B504460E462EB14FF48051BA
:1013D0001748FFF7B3FB04E04FF480511448FFF7C0
:1013E000ABFB00251BE04FF400511148FFF7A4FBB5
:1013F00004F0800028B14FF400410D48FFF79EFB38
:1014000004E04FF400410A48FFF796FB4FF4005107
:101410000748FFF793FB6006040E681CC5B2082D51
:10142000E1DB4FF480510248FFF788FB70BD0000FC
:10143000000C01407047000001460020034A50683C
:1014400020F4404008435060704700000010024004
:1014500029B1064A52690243044B5A6104E0034A27
:1014600052698243014B5A617047000000100240EC
:1014700029B1064A92690243044B9A6104E0034A87
:1014800092698243014B9A6170470000001002404C
:1014900030B500210022002400232D4D6D6805F099
:1014A0000C0121B1042905D0082923D105E0294DDB
:1014B000056022E0274D05601FE0254D6D6805F4AD
:1014C0007012234D6D6805F48034022505EB9242BD
:1014D0001CB9214D554305600BE01D4D6D6805F4A9
:1014E00000351DB11C4D5543056002E0194D5543B3
:1014F000056002E0174D056000BF00BF144D6D6828
:1015000005F0F0010909154D6B5C0568DD4045608B
:101510000F4D6D6805F4E061090A104D6B5C45687C
:10152000DD4085600A4D6D6805F46051C90A0B4DB8
:101530006B5C4568DD40C560054D6D6805F4404154
:10154000890B074D6B5CC568B5FBF3F5056130BDD4
:101550000010024000127A0000093D0082000020C5
:1015600092000020F8B5AC49C888FEF767FE054632
:101570004FF07A51FEF730FE0446FEF764FE00F5A8
:101580007A70A649C9880844A5498880A54800887A
:10159000FEF754FE07464FF07D51FEF71DFE05464F
:1015A0009F498888FEF74AFE07464FF07A51FEF7BA
:1015B00013FE06462946FEF7B7FD0446FEF743FE36
:1015C00080B2974988809749088093494888FEF7F8
:1015D00035FE05464FF07A51FEF7FEFD0446FEF754
:1015E00032FE00F57A708D49898808448C4948801C
:1015F0008D480088FEF722FE07464FF07D51FEF72A
:10160000EBFD054686494888FEF718FE07464FF071
:101610007A51FEF7E1FD06462946FEF785FD0446B0
:10162000FEF711FE80B27E4948807F4908807A49E2
:101630008888FEF703FE05464FF07A51FEF7CCFD91
:101640000446FEF700FE00F57A70744909890844E3
:101650007349C8800846C08840F2DC51884217DDD3
:101660006F48C088B0F5FA6F04DB40F2ED306C498A
:10167000C8802AE06A48C088A0F2DC506849C88067
:101680000846C08840F2DC51081A6549C8801CE051
:101690006348C08840F2DC51884216DA6048C0884E
:1016A00040F2F231884204DA4FF4FA605C49C880B3
:1016B0000BE05B48C08840F2DC51081A5849C880EA
:1016C0000846C08800F2DC50C88058480088FEF701
:1016D000B5FD07464FF07D51FEF77EFD05465049AA
:1016E000C888FEF7ABFD07464FF07A51FEF774FD50
:1016F00006462946FEF718FD0446FEF7A4FD80B213
:101700004749C8804949088043490888FEF796FD43
:1017100005464FF07A51FEF75FFD0446FEF793FD54
:1017200000F57A703D49498808443D4908800846DB
:10173000008840F2DC51884217DD39480088B0F556
:10174000FA6F04DB40F2ED30354908802AE0344876
:101750000088A0F2DC50324908800846008840F238
:10176000DC51081A2E4908801CE02D48008840F200
:10177000DC51884216DA2A48008840F2F231884269
:1017800004DA4FF4FA60264908800BE02448008808
:1017900040F2DC51081A224908800846008800F20D
:1017A000DC50088022480088FEF748FD07464FF0CD
:1017B0007D51FEF711FD054619490888FEF73EFDEB
:1017C00007464FF07A51FEF707FD06462946FEF719
:1017D000ABFC0446FEF737FD80B21149088014497E
:1017E000088014480088401C124908800846008878
:1017F000C8280CDB0A48808800900948C388028802
:1018000041880DA000F016FB00200A49088000F076
:1018100009FCFFF7CFFAF8BD140000209C0000205F
:1018200030000020680000206C0000206E000020C6
:101830006A00002046000020C7B0BAF33A202564B1
:10184000202020D7F3D3D23A202564202020BABD0F
:10185000CFF23A202564202020D3CDC3C53A2025DD
:1018600064200D0A0000000038B53E4800883E495B
:1018700008800846008866285FD04FF47A7000F030
:10188000B5FB3A490888FEF7D9FC05464FF07A5176
:10189000FEF7A2FC0446FEF7D6FCC0F5FA7000B2D3
:1018A0003149488031494888FEF7C8FC05464FF069
:1018B0007A51FEF791FC0446FEF7C5FCA0F5FA70DC
:1018C00000B2294988802949C888FEF7B7FC054637
:1018D0004FF07A51FEF780FC0446FEF7B4FC00B2EC
:1018E0002149C88021498888FEF7A8FC05464FF0A9
:1018F0007A51FEF771FC0446FEF7A5FCC0F5FA70BC
:1019000000B219490881662008800846B0F9020033
:1019100000900846B0F90830B0F90420B0F906107C
:10192000134800F087FA1048B0F90600012815DCCA
:1019300005210D48FEF7DAFF10E00A48801C0088F8
:10194000094948800748001D008888800548801D97
:101950000088C880034808300088088100F0FEFB3A
:1019600038BD000000FC00089C000020140000208E
:101970000C3A000821B1028842F04002028004E0E3
:1019800002884FF6BF731A400280704700B587B0D7
:1019900001210803FFF76CFD01210520FFF768FD19
:1019A00010211C48FFF7CAF8E020ADF8040003201E
:1019B0008DF8060018208DF8070001A91548FEF7DC
:1019C000E7FF00211448FFF7D5FF0020ADF808001D
:1019D0004FF48270ADF80A000020ADF80C00ADF8AD
:1019E0000E00ADF810004FF40070ADF8120010209A
:1019F000ADF814000020ADF816000720ADF818006F
:101A000002A9054800F018F801210348FFF7B2FFCA
:101A100007B000BD00080140003001400246002030
:101A200013890B400BB1012000E0002070470146F4
:101A3000888970478181704710B50022028802F4BE
:101A400041520B884C8823438C882343CC88234302
:101A50000C8923434C8923438C892343CC8923431A
:101A60001A430280838B4FF2FF74234083830B8AD7
:101A7000038210BD10B5044600BF02210A48FFF7DB
:101A8000CDFF0028F9D021460748FFF7D3FF00BF5C
:101A900001210548FFF7C2FF0028F9D00248FFF7EF
:101AA000C6FFC0B210BD000000300140704710B545
:101AB00000F002F810BD00000CB50020019000906D
:101AC0003348006840F480303149086000BF304836
:101AD000006800F4003000900198401C01900098CC
:101AE00018B90198B0F5A06FF1D12948006800F449
:101AF000003010B10120009001E00020009000981B
:101B0000012843D12348006840F0100021490860B3
:101B10000846006820F0030008600846006840F0AE
:101B2000020008601A484068194948600846406841
:101B300048600846406840F4806048600846406855
:101B400020F47C1048600846406840F4E810486083
:101B50000846006840F08070086000BF0C480068CC
:101B600000F000700028F9D00948406820F0030018
:101B7000074948600846406840F00200486000BFDE
:101B80000348406800F00C000828F9D10CBD0000A3
:101B9000001002400020024010B506480068401CBA
:101BA0000449086004480088401E03490880FFF784
:101BB000D9FC10BD780000208000002010B513482B
:101BC000006840F00100114908600846406810496B
:101BD00008400E494860084600680E4908400B4915
:101BE00008600846006820F48020086008464068C5
:101BF00020F4FE0048604FF41F008860FFF757FF95
:101C00004FF000600449086010BD00000010024061
:101C10000000FFF8FFFFF6FE08ED00E010B54FF4FE
:101C2000004015490860052214493020FFF78CF860
:101C3000052213492A20FFF787F801212120FFF709
:101C4000A3F801212220FFF79FF81A212420FFF793
:101C50009BF82D212520FFF797F80F212620FFF76D
:101C600093F80E212020FFF78FF84FF4004002492F
:101C7000091F086010BD0000140801404022000840
:101C80004522000800B587B0012144F20400FFF7A7
:101C9000EFFB25208DF8040000208DF805008DF85D
:101CA000060001208DF8070001A8FFF7BDF84FF4EA
:101CB0000070ADF8180018208DF81B0003208DF877
:101CC0001A0006A91348FEF763FE4FF48060ADF8D2
:101CD000180004208DF81B0006A90E48FEF758FED8
:101CE0004FF4E13002900020ADF80C00ADF80E008A
:101CF000ADF81000ADF814000820ADF8120002A9EC
:101D0000054800F025F80121034800F007F807B066
:101D100000BD0000000801400038014021B1828967
:101D200042F40052828104E082894DF6FF731A402A
:101D30008281704702460020B1F5007F00D100BFCC
:101D400013880B400BB1012000E000207047000019
:101D50002DE9F04786B005460E460024A24600BF96
:101D6000A1460027B08900B100BF2F462C8A4CF64F
:101D7000FF700440F08804432C82AC894EF6F310C7
:101D80000440B08831890843718908430443AC8119
:101D9000AC8A4FF6FF400440B0890443AC8201A8EE
:101DA000FFF776FB1F48874202D1DDF810A001E063
:101DB000DDF80CA0A88900F4004040B10AEBCA008D
:101DC00000EB0A1031684900B0FBF1F807E00AEBBC
:101DD000CA0000EB0A1031688900B0FBF1F86420FA
:101DE000B8FBF0F004012009642101FB1089A889E7
:101DF00000F4004040B1322000EBC900B0FBF1F02C
:101E000000F00700044308E0322000EB09106421D1
:101E1000B0FBF1F000F00F0004432C8106B0BDE8E8
:101E2000F087000000380140C1F30802828070474B
:101E300000BFFEE70FB4054B10B503A9044A029892
:101E400000F018F810BC5DF814FB00000120000839
:101E50009800002002E008C8121F08C1002AFAD129
:101E600070477047002001E001C1121F002AFBD11A
:101E7000704700002DE9FF4F89B09B4604460025BE
:101E800006E025280BD05A460B999047641C6D1C20
:101E900020780028F5D10DB02846BDE8F08F002746
:101EA000B8460122474900E0074314F8013F203BB0
:101EB00002FA03F00842F7D120782E2819D114F83D
:101EC000010F47F004072A280ED06FF02F02207868
:101ED000A0F1300109290CD808EB880102EB41017F
:101EE00000EB0108641CF2E70A98641C50F8048BAC
:101EF0000A9020780028CED0642808D0692806D01F
:101F000075281ED05A460B9990476D1C58E00A99C7
:101F10004FF00A0901C90A91002802DA40422D2136
:101F200002E0390504D52B218DF82010012103E0B2
:101F3000F90704D02021F7E78A4608AE0DE000211A
:101F4000FAE70A994FF00A0901C90A91F7E74946E9
:101F5000FEF78DF9303106F8011D0028F7D1ADEB01
:101F6000060000F12009780701D44FF00108C845A8
:101F700002DDA8EB090000E000208046002706E013
:101F800008A85A46C05D0B9990476D1C7F1C5745A9
:101F9000F6DB04E030205A460B9990476D1CB8F1EF
:101FA0000001A8F10108F5DC05E016F8010B5A461E
:101FB0000B9990476D1CB9F10001A9F10109F4DCFE
:101FC000641C65E70928010000B585B06846FFF785
:101FD0005FFA04490098B0FBF1F00349086005B0CE
:101FE00000BD000040420F007C0000200349088033
:101FF00000BF024909880029FBD1704780000020FA
:1020000070B504460D46E1B20548FFF70DFF00BF6D
:1020100040210348FFF78EFE0128F9D1204670BD0C
:102020000038014010B54648007820B101281FD083
:1020300002281CD127E04348006843490968401A38
:10204000142814D94148006800F4FC70B0F5FC7FF6
:1020500002D101203A4908704FF480513C48FEF704
:102060006DFD4FF4806139480838FEF765FD65E085
:102070003648006800F4FC70B0F5FC7F02D0022006
:102080002F4908705AE03148006800F0400030B92C
:1020900030484088401D00B22E4948803BE02B4824
:1020A000006800F0100030B92A484088401F00B294
:1020B000284948802FE02548006800F0200030B90A
:1020C00024488088401F00B22249888023E01F48AE
:1020D000006800F0080030B91E488088401D00B23A
:1020E0001C49888017E01948006800F0800038B962
:1020F00000201849C88005211648FEF7F7FB0AE0C2
:102100001248006800F4807028B91348808A80F46F
:102110008760114988820020094908704FF4805176
:102120000B48FEF709FD4FF4806108480838FEF7B8
:1021300005FD044800680449086000BF00BF10BDE9
:10214000700000207800002074000020080C01407E
:10215000000801409C0000203000002008B54FF02E
:1021600000700A49486001210820FFF781F94FF407
:10217000FC70ADF8000048208DF8030003208DF8B6
:10218000020069460248FEF703FC08BD000001405A
:10219000000C0140FFF718FF00BF214800684FF412
:1021A0007A72B0FBF2F1B1F1807F01D301201DE022
:1021B00021F07F40401E4FF0E022506150170F2267
:1021C000002807DA13071D0E164B00F00F04241F1A
:1021D0001D5503E013071C0E134B1C5400BF0020B9
:1021E0004FF0E02290610720106100200028D4D138
:1021F000FEF7FCF9FEF738FDFFF744FDFEF7A2FEFF
:102200006420FFF7F3FE09A0FFF714FEFEF78EF837
:10221000FEF7A4F8FFF728FB01E0FFF725F8FCE73D
:102220000000002018ED00E000E400E00D0A7374E7
:102230006D333266313033433874360D0A00000096
:102240001122334455112233445500000000000090
:10225000000000000000000000003F4000000000FF
:102260000000000030004000300040000000090085
:102270000BC03D000BC03D00090018C024407FE0AA
:10228000224031800000180024C01B000D80324025
:10229000018003801C4027401C8007400040100044
:1022A00060000000000000000000000000000000CE
:1022B0001F80204040200000402020401F80000060
:1022C0000000090006001F8006000900000004004D
:1022D00004003F80040004000000001000600000C3
:1022E00000000000000004000400040004000400DA
:1022F000000000000040000000000000000000207E
:1023000001C006003800400000001F80204020402F
:1023100020401F800000000010403FC0004000002F
:10232000000018C0214022402440184000001080C6
:102330002040244024401B80000002000D001100BA
:102340003FC0014000003C802440244024402380C2
:1023500000001F80244024403440038000003000EF
:10236000200027C03800200000001B8024402440AB
:1023700024401B8000001C0022C0224022401F80FD
:102380000000000000000840000000000000000005
:1023900000000460000000000000000004000A00CB
:1023A00011002080404009000900090009000900CF
:1023B000000000004040208011000A0004001800C6
:1023C000200023402400180000001F8020402740E8
:1023D00029401F400000004007C039000F0001C025
:1023E000004020403FC0244024401B8000001F804C
:1023F0002040204020403080000020403FC020404E
:1024000020401F80000020403FC024402E4030C0AC
:10241000000020403FC024402E00300000000F008C
:102420001080204022403380020020403FC0040042
:1024300004003FC02040204020403FC020402040BA
:1024400000000060202020203FC02000200020400D
:102450003FC024400B0030C0204020403FC02040FF
:102460000040004000C03FC03C0003C03C003FC0F3
:10247000000020403FC00C4023003FC020001F80D0
:102480002040204020401F80000020403FC02440CA
:102490002400180000001F802140214020E01FA0E0
:1024A000000020403FC02440260019C0004018C052
:1024B00024402440224031800000300020403FC0B2
:1024C00020403000000020003F80004000403F805E
:1024D000200020003E0001C0070038002000380026
:1024E00007C03C0007C038000000204039C006008B
:1024F00039C0204000002000384007C0384020008C
:102500000000304021C02640384020C000000000BC
:1025100000007FE0402040200000000070000C0020
:102520000380004000000000402040207FE00000C9
:10253000000000002000400020000000000000100B
:1025400000100010001000100010000000004000FB
:10255000000000000000000002800540054003C0AC
:10256000004020003FC00440044003800000000001
:102570000380044004400640000000000380044043
:1025800024403FC000400000038005400540034058
:102590000000000004401FC0244024402000000030
:1025A00002E0055005500650042020403FC0044082
:1025B000040003C000400000044027C000400000A9
:1025C000000000100010041027E000000000204070
:1025D0003FC00140070004C00440204020403FC0ED
:1025E00000400040000007C0040007C0040003C012
:1025F0000000044007C00440040003C00040000085
:1026000003800440044003800000041007F00450DD
:10261000044003800000000003800440045007F0E1
:102620000010044007C00240040004000000000045
:1026300006400540054004C00000000004001F8063
:10264000044000400000040007800040044007C030
:1026500000400400070004C00180060004000600DA
:1026600001C0070001C006000000044006C00100D0
:1026700006C0044000000410071004E001800600BA
:1026800004000000044005C00640044000000000B3
:10269000000004007BE0402000000000000000007B
:1026A000FFF000000000000040207BE0040000007C
:1026B000000040008000400020002000400000009A
:1026C000000000000000000000000000000000000A
:1026D000000000001FCC000C000000000000000003
:1026E0000800300060000800300060000000022098
:1026F00003FC1E20022003FC1E200220000000001C
:102700000E1811043FFF10840C78000000000F0029
:1027100010840F3800C00778188400780000007813
:102720000F8410C411240E9800E4008400080800EF
:1027300068007000000000000000000000000000C1
:102740000000000007E0181820044002000000000C
:1027500040022004181807E00000000000000240BA
:10276000024001800FF00180024002400000008022
:10277000008000800FF800800080008000000001D1
:10278000000D000E0000000000000000000000002E
:1027900000800080008000800080008000800000B9
:1027A000000C000C00000000000000000000000011
:1027B00000060018006001800600180020000000DC
:1027C00007F0080810041004080807F000000000D3
:1027D000080408041FFC00040004000000000000BE
:1027E0000E0C10141024104411840E0C0000000074
:1027F0000C1810041104110412880C700000000061
:1028000000E00320042408241FFC00240000000032
:102810001F9810841104110410881070000000002B
:1028200007F00888110411041888007000000000E7
:102830001C00100010FC13001C0010000000000021
:102840000E3811441084108411440E38000000002A
:102850000700088C10441044088807F000000000AE
:1028600000000000030C030C00000000000000004A
:102870000000000101060000000000000000000050
:10288000008001400220041008081004000002200B
:10289000022002200220022002200220000000006C
:1028A000100408080410022001400080000000000D
:1028B0000E001200100C106C10800F00000003E0DE
:1028C0000C1813E4142417C4082807D000000004CF
:1028D000003C03C41C40074000E4001C000410043A
:1028E0001FFC1104110411040E880070000003E0A5
:1028F0000C1810041004100410081C100000100420
:102900001FFC100410041004080807F00000100455
:102910001FFC1104110417C410040818000010044F
:102920001FFC1104110017C010000800000003E094
:102930000C181004100410441C780040000010040F
:102940001FFC10840080008010841FFC1004000015
:10295000100410041FFC1004100400000000000309
:102960000001100110011FFE1000100000001004F3
:102970001FFC110403801464181C100400001004D0
:102980001FFC1004000400040004000C00001004EC
:102990001FFC1F0000FC1F001FFC1004000010049F
:1029A0001FFC0C04030000E010181FFC100007F0CF
:1029B0000808100410041004080807F000001004B0
:1029C0001FFC10841080108010800F00000007F0A2
:1029D000081810241024101C080A07F20000100424
:1029E0001FFC1104110011C011300E0C0004000076
:1029F0000E1C11041084108410441C3800001800B0
:102A0000100010041FFC100410001800000010003B
:102A10001FF810040004000410041FF81000100038
:102A20001E0011E0001C007013801C0010001FC06D
:102A3000103C00E01F0000E0103C1FC0000010042C
:102A4000180C163401C001C01634180C1004100004
:102A50001C00130400FC13041C00100000000804F8
:102A6000101C1064108413041C04101800000000D3
:102A7000000000007FFE4002400240020000000013
:102A800030000C0003800060001C00030000000008
:102A90004002400240027FFE0000000000000000F3
:102AA0000000200040004000400020000000000125
:102AB000000100010001000100010001000100000F
:102AC0004000400020000000000000000000000066
:102AD0000098012401440144014400FC000410005A
:102AE0001FFC008801040104008800700000000041
:102AF0000070008801040104010400880000000047
:102B0000007000880104010411081FFC000400008B
:102B100000F8014401440144014400C800000000E1
:102B2000010401040FFC110411041100180000003D
:102B300000D601290129012901C90106000010045C
:102B40001FFC008401000100010400FC00040000DF
:102B50000104190419FC0004000400000000000036
:102B6000000300010101190119FE0000000010041A
:102B70001FFC0024004001B4010C0104000000000F
:102B8000100410041FFC00040004000000000104F5
:102B900001FC0104010001FC0104010000FC01042E
:102BA00001FC008401000100010400FC000400009D
:102BB00000F8010401040104010400F8000001010F
:102BC00001FF00850104010400880070000000007E
:102BD0000070008801040104010501FF00010104E7
:102BE000010401FC008401040100018000000000D8
:102BF00000CC0124012401240124019800000000DC
:102C00000100010007F801040104000000000100B8
:102C100001F8000400040004010801FC00040100A4
:102C200001800170000C001001600180010001F0C2
:102C3000010C003001C00030010C01F00100000067
:102C40000104018C00740170018C01040000010179
:102C500001810171000E0018016001800100000077
:102C60000184010C013401440184010C00000000C6
:102C700000000000000001003EFC40024002000095
:102C8000000000000000FFFF000000000000000046
:102C9000400240023EFC0100000000000000000075
:102CA0006000800080004000400020002000000004
:102CB0000000000000000000000000000000000014
:102CC0000000000000000000000000000000000004
:102CD00000000000000000000000000000000000F4
:102CE000000F80380FFE380F803800000000000011
:102CF00000000000000000000000000001000006CD
:102D000000000C00003800003100000600000C003C
:102D1000003800003000000000000000000061806A
:102D20000067F807F9800061800061800061800021
:102D300061800067F807F9800061800000000000F2
:102D40000000000001C0E003E0F0063008041808AD
:102D50001FFFFE040E080787F00381E0000000005B
:102D6000000001F000060C00040408060C7001F9D4
:102D7000C0000E00003BE000EC18070808040C1827
:102D80000003E00000000001E00007F003F8180471
:102D90001C0804170807E1D003C0E00023B0003C82
:102DA00008002008000010000000000000010000E2
:102DB0003100003200001C00000000000000000094
:102DC0000000000000000000000000000000000003
:102DD00000000000000000000000000000007F0074
:102DE00001FFC00780F00C00181000042000020052
:102DF00000000000002000021000040C00180780F2
:102E0000F001FFC0007F0000000000000000000093
:102E1000000000000000000000004200006600000A
:102E20006600003C0000180003FFC0001800003CD2
:102E3000000066000066000042000000000008007C
:102E400000080000080000080000080001FFC000A2
:102E5000080000080000080000080000080000004A
:102E60000000000100003100003200001C000000E2
:102E70000000000000000000000000000000000052
:102E80000000000000000800000800000800000822
:102E9000000008000008000008000008000008000A
:102EA00000080000000000000000000000003800E2
:102EB00000380000380000000000000000000000A2
:102EC00000000000000000000000000000000006FC
:102ED00000001C000070000180000E00003800009F
:102EE000C0000700001C00003000000000000000CF
:102EF00000007F8001FFE0038070060018040008D6
:102F000004000806001803807001FFE0007F8000C5
:102F1000000000000000000001000801000801009E
:102F20000803FFF807FFF800000800000800000889
:102F300000000000000000000001C03802C058047A
:102F40000098040118040218040418061C1803F859
:102F50001801E0F800000000000000000001C0E0DF
:102F600003C0F00400080408080408080618080351
:102F7000F41801E7F00001E000000000000000008C
:102F800000000300000D0000110000610000810836
:102F900003010807FFF80FFFF8000108000108000F
:102FA00000000000000000E007FCD0060808061042
:102FB00008061008061008061838060FF00607C0A5
:102FC000000000000000000000003F8001FFE0035F
:102FD00084300208180410080410080410080718A8
:102FE00010030FF00007C000000000000000000008
:102FF00003C0000700000600000600F80607F806F8
:10300000180006E0000700000600000000000000B5
:103010000001E1E003F7F006341004180804180872
:10302000040C08040C0806161803F3F001C1E000B4
:10303000000000000000F80003FC30030638040222
:10304000080402080402080404100308F001FFC089
:10305000007F0000000000000000000000000000F1
:103060000000000000007038007038007038000068
:103070000000000000000000000000000000000050
:1030800000000000000000000000301A00301C00AA
:103090000000000000000000000000000000000030
:1030A00000000000000800001400002200004100A1
:1030B0000080800100400200200400100800080089
:1030C000000000000000210000210000210000217C
:1030D000000021000021000021000021000021004B
:1030E00000210000000000000000000008000804AB
:1030F00000100200200100400080800041000022FA
:103100000000140000080000000000000003C000E0
:1031100004C000040000080038080F380808380808
:1031200010000C300007E00003C0000000000000A9
:1031300000003F8000FFE0038070020F10067088DF
:1031400004C088048308047F8802C0900301200023
:10315000FE400000080000180001F8003E0801C20F
:103160000007020007E20000FE00001FC80001F88F
:1031700000003800000804000807FFF807FFF80403
:10318000080804080804080804080806180803F4D6
:103190001801E7F00001E0000000000000003F809F
:1031A00001FFE00380700200180400080400080416
:1031B00000080400100600200780C0000000040082
:1031C0000807FFF807FFF8040008040008040008D7
:1031D00004001802001003807001FFE0007F8000EF
:1031E000000004000807FFF807FFF80408080408B7
:1031F00008040808040808043E080400080600182B
:1032000001006000000004000807FFF807FFF80451
:103210000808040800040800040800043E00060032
:1032200000060000018000000000000000003F8058
:1032300001FFE0038070060018040008040208047F
:1032400002080203F00783F00002000002000400FD
:103250000807FFF807FFF804080800080000080046
:1032600000080000080004080807FFF807FFF8043A
:10327000000800000000000004000804000804002A
:103280000807FFF807FFF804000804000804000816
:103290000000000000000000000000060000070021
:1032A000000104000104000104000307FFFE07FF02
:1032B000FC04000004000004000004000807FFF8FC
:1032C00007FFF8040C08001800003E0004C7800542
:1032D00003C80600F80400380400180000080400C1
:1032E0000807FFF807FFF8040008000008000008BE
:1032F000000008000008000008000018000060003E
:10330000000004000807FFF807800807FC00007FA2
:10331000C00003F80007C000780007800807FFF826
:1033200007FFF804000804000807FFF80700080377
:10333000C00000E000003800001E0000070000018F
:10334000C00400F007FFF8040000000000007F80C8
:1033500001FFE0038070060018040008040008065E
:10336000001803003001FFE0007F8000000004002F
:103370000807FFF807FFF804040804040004040029
:10338000040400040400060C0003F80001F000002F
:103390000000000000007F8001FFE0038070060055
:1033A000880400880400C806003C03003E01FFE6D4
:1033B000007F8400000004000807FFF807FFF804FE
:1033C0000808040800040C00040F00040BC00610D9
:1033D000F003F03801E00800000800000001E0F808
:1033E00003F030063010041808041808040C080410
:1033F0000C080206180207F00781E00000000180B7
:103400000006000004000004000004000807FFF8A4
:1034100007FFF80400080400000400000600000193
:10342000800004000007FFE007FFF0040018000020
:103430000800000800000800000800000804001050
:1034400007FFE004000004000006000007E000079A
:10345000FE00041FE00001F80000380001E0043E17
:103460000007C00006000004000004000007E000A0
:1034700007FFC0041FF80007C007F80007FF80041B
:103480003FF80007C004F800070000040000000037
:103490000004000806001807C07805F1C8003E00C7
:1034A000001F800463E80780F80600180400080085
:1034B000000004000006000007800007E008047C0C
:1034C00008001FF80007F800180804E008070000CB
:1034D0000600000400000000000100080600380497
:1034E00000F80403E8040F08047C0805F00807C08E
:1034F0000807001804006000000000000000000041
:103500000000000000000000003FFFFE200002203D
:103510000002200002200002200002000000000043
:103520000000000008000007000000C00000380094
:103530000006000001C000003000000E0000010085
:103540000000000000000000200002200002200017
:10355000022000022000023FFFFE000000000000E9
:103560000000000000000000000000000000000853
:1035700000001000003000002000003000001000AB
:103580000008000000000000000000000100000131
:103590000000010000010000010000010000010026
:1035A0000001000001000001000001000001000016
:1035B00000000000000000200000200000100000BB
:1035C00010000000000000000000000000000000EB
:1035D00000000000000000F00019F8001B18002295
:1035E00008002608002408002410003FF8001FF8F7
:1035F00000000800001800000004000007FFF80F9A
:10360000FFF0001818001008002008002008003003
:1036100018001FF0000FC00000000000000007C0ED
:10362000001FF000183000200800200800200800CB
:103630003C08001C100000600000000000000000BA
:10364000000007C0001FF000381800200800200804
:1036500000200804101007FFF80FFFF00000100012
:1036600000000000000000000007C0001FF0001272
:1036700030002218002208002208003208001E1024
:10368000000E2000000000000000200000200800C4
:10369000200801FFF803FFF8062008042008042092
:1036A0000807200003000000000000000000000EDA
:1036B000000E6E001FF30031B10020B10020B100F8
:1036C0003191001F13002E1E00200E00300000005C
:1036D0000004000807FFF80FFFF8001008002000A2
:1036E000002000002008003FF8001FF8000008003C
:1036F000000000000000000000200800200800205A
:1037000008063FF8063FF80000080000080000081F
:1037100000000000000000000000000000000300A6
:103720000003002001002001002003063FFE063FA9
:10373000FC00000000000000000000000004000881
:1037400007FFF80FFFF8000188000300002FC000FA
:1037500038F80020380020080000080000000000B1
:103760000000000004000804000804000807FFF837
:103770000FFFF8000008000008000008000000002B
:103780000000002008003FF8003FF800100800206B
:1037900000003FF8003FF8001008002000003FF84C
:1037A000003FF8000008000000002008003FF8007B
:1037B0003FF8001008001000002000002008003F23
:1037C000F8001FF80000080000000000000007C01B
:1037D000000FF0001830003008002008002008001A
:1037E0003008001830000FF00007C0000000000093
:1037F00000002001003FFF003FFF001011002009E2
:10380000002008002008003038001FF0000FC00022
:1038100000000000000007C0001FF0003818002062
:1038200008002008002009001011001FFF003FFFC2
:10383000000001000000002008002008002008000F
:103840003FF8003FF800080800100800200800209A
:103850000000300000300000000000000000000008
:10386000000C78001E18003308002308002108000F
:1038700021880021980030F000386000000000002E
:103880000000200000200000200000FFF003FFF8EF
:103890000020080020080020080000300000000080
:1038A0000000000000002000003FF0007FF8000052
:1038B00018000008000008002010003FF8007FF00A
:1038C0000000100000000000000020000030000098
:1038D0003C00003F800023F00000780000700023CF
:1038E00080003C00003000002000002000003C0070
:1038F000003FE00023F80000E0002700003E000049
:103900003FE00021F80001E0003E00002000000040
:1039100000002008002008003838003E680027809A
:103920000003C8002CF800383800201800200800D8
:103930000000000000002000003003003C01003FB8
:10394000830023EC000070002380003C0000200076
:103950000020000000000000000000000038080007
:1039600020380020F80023E8002F88003E080038A7
:103970000800201800007000000000000000000097
:103980000000000000000000000008000014001FFC
:10399000F7FC3000062000020000000000000000DC
:1039A0000000000000000000000000000000000017
:1039B000FFFFFF000000000000000000000000000A
:1039C00000000000000000002000023000061FF789
:1039D000FC001400000800000000000000000000CF
:1039E000000000000000000000180000600000401F
:1039F000000040000020000010000008000004004B
:103A0000000400000C000010000000006F666673E8
:103A10006574207468723A2025642020206F6666E1
:103A20007365742070697463683A202564202020CF
:103A30006F6666736574207961773A20256420206B
:103A4000206F666673657420726F6C6C3A20256413
:103A5000200D0A00743A0008000000209C000000BD
:103A6000541E0008103B00089C0000208C08000039
:103A7000641E000800A24A040000000000000000CC
:103A8000010203040607080900000000000000000E
:103A90000000000000000000CDAB1032000000006C
:103AA00004010000E803E803E803E803E803E8038F
:103AB000E803E803E803E803E8030000AAAF031BF8
:103AC00000000000000000000000000000000000F6
:103AD00000000000000000000000000000000000E6
:103AE00000000000000000000000000000000000D6
:103AF00000000000000000000000010203040102B9
:103B0000030406070809020406080000000000007C
:04000005080000ED02
:00000001FF
